{
  "_format": "hh-sol-artifact-1",
  "contractName": "NFTCollectible",
  "sourceName": "contracts/NFTCollectible.sol",
  "abi": [
    {
      "inputs": [
        {
          "internalType": "string",
          "name": "baseURI",
          "type": "string"
        }
      ],
      "stateMutability": "nonpayable",
      "type": "constructor"
    },
    {
      "anonymous": false,
      "inputs": [
        {
          "indexed": true,
          "internalType": "address",
          "name": "owner",
          "type": "address"
        },
        {
          "indexed": true,
          "internalType": "address",
          "name": "approved",
          "type": "address"
        },
        {
          "indexed": true,
          "internalType": "uint256",
          "name": "tokenId",
          "type": "uint256"
        }
      ],
      "name": "Approval",
      "type": "event"
    },
    {
      "anonymous": false,
      "inputs": [
        {
          "indexed": true,
          "internalType": "address",
          "name": "owner",
          "type": "address"
        },
        {
          "indexed": true,
          "internalType": "address",
          "name": "operator",
          "type": "address"
        },
        {
          "indexed": false,
          "internalType": "bool",
          "name": "approved",
          "type": "bool"
        }
      ],
      "name": "ApprovalForAll",
      "type": "event"
    },
    {
      "anonymous": false,
      "inputs": [
        {
          "indexed": true,
          "internalType": "address",
          "name": "previousOwner",
          "type": "address"
        },
        {
          "indexed": true,
          "internalType": "address",
          "name": "newOwner",
          "type": "address"
        }
      ],
      "name": "OwnershipTransferred",
      "type": "event"
    },
    {
      "anonymous": false,
      "inputs": [
        {
          "indexed": true,
          "internalType": "address",
          "name": "from",
          "type": "address"
        },
        {
          "indexed": true,
          "internalType": "address",
          "name": "to",
          "type": "address"
        },
        {
          "indexed": true,
          "internalType": "uint256",
          "name": "tokenId",
          "type": "uint256"
        }
      ],
      "name": "Transfer",
      "type": "event"
    },
    {
      "inputs": [],
      "name": "MAX_PER_MINT",
      "outputs": [
        {
          "internalType": "uint256",
          "name": "",
          "type": "uint256"
        }
      ],
      "stateMutability": "view",
      "type": "function"
    },
    {
      "inputs": [],
      "name": "MAX_SUPPLY",
      "outputs": [
        {
          "internalType": "uint256",
          "name": "",
          "type": "uint256"
        }
      ],
      "stateMutability": "view",
      "type": "function"
    },
    {
      "inputs": [],
      "name": "PRICE",
      "outputs": [
        {
          "internalType": "uint256",
          "name": "",
          "type": "uint256"
        }
      ],
      "stateMutability": "view",
      "type": "function"
    },
    {
      "inputs": [
        {
          "internalType": "address[]",
          "name": "wAddresses",
          "type": "address[]"
        }
      ],
      "name": "allowlistAddresses",
      "outputs": [],
      "stateMutability": "nonpayable",
      "type": "function"
    },
    {
      "inputs": [
        {
          "internalType": "address",
          "name": "to",
          "type": "address"
        },
        {
          "internalType": "uint256",
          "name": "tokenId",
          "type": "uint256"
        }
      ],
      "name": "approve",
      "outputs": [],
      "stateMutability": "nonpayable",
      "type": "function"
    },
    {
      "inputs": [
        {
          "internalType": "address",
          "name": "owner",
          "type": "address"
        }
      ],
      "name": "balanceOf",
      "outputs": [
        {
          "internalType": "uint256",
          "name": "",
          "type": "uint256"
        }
      ],
      "stateMutability": "view",
      "type": "function"
    },
    {
      "inputs": [],
      "name": "baseTokenURI",
      "outputs": [
        {
          "internalType": "string",
          "name": "",
          "type": "string"
        }
      ],
      "stateMutability": "view",
      "type": "function"
    },
    {
      "inputs": [
        {
          "internalType": "uint256",
          "name": "tokenId",
          "type": "uint256"
        }
      ],
      "name": "getApproved",
      "outputs": [
        {
          "internalType": "address",
          "name": "",
          "type": "address"
        }
      ],
      "stateMutability": "view",
      "type": "function"
    },
    {
      "inputs": [
        {
          "internalType": "address",
          "name": "",
          "type": "address"
        }
      ],
      "name": "isAllowlistAddress",
      "outputs": [
        {
          "internalType": "bool",
          "name": "",
          "type": "bool"
        }
      ],
      "stateMutability": "view",
      "type": "function"
    },
    {
      "inputs": [
        {
          "internalType": "address",
          "name": "owner",
          "type": "address"
        },
        {
          "internalType": "address",
          "name": "operator",
          "type": "address"
        }
      ],
      "name": "isApprovedForAll",
      "outputs": [
        {
          "internalType": "bool",
          "name": "",
          "type": "bool"
        }
      ],
      "stateMutability": "view",
      "type": "function"
    },
    {
      "inputs": [
        {
          "internalType": "uint256",
          "name": "_count",
          "type": "uint256"
        }
      ],
      "name": "mintNFTs",
      "outputs": [],
      "stateMutability": "payable",
      "type": "function"
    },
    {
      "inputs": [],
      "name": "name",
      "outputs": [
        {
          "internalType": "string",
          "name": "",
          "type": "string"
        }
      ],
      "stateMutability": "view",
      "type": "function"
    },
    {
      "inputs": [],
      "name": "owner",
      "outputs": [
        {
          "internalType": "address",
          "name": "",
          "type": "address"
        }
      ],
      "stateMutability": "view",
      "type": "function"
    },
    {
      "inputs": [
        {
          "internalType": "uint256",
          "name": "tokenId",
          "type": "uint256"
        }
      ],
      "name": "ownerOf",
      "outputs": [
        {
          "internalType": "address",
          "name": "",
          "type": "address"
        }
      ],
      "stateMutability": "view",
      "type": "function"
    },
    {
      "inputs": [
        {
          "internalType": "uint256",
          "name": "_count",
          "type": "uint256"
        }
      ],
      "name": "preSale",
      "outputs": [],
      "stateMutability": "payable",
      "type": "function"
    },
    {
      "inputs": [],
      "name": "renounceOwnership",
      "outputs": [],
      "stateMutability": "nonpayable",
      "type": "function"
    },
    {
      "inputs": [],
      "name": "reserveNFTs",
      "outputs": [],
      "stateMutability": "nonpayable",
      "type": "function"
    },
    {
      "inputs": [
        {
          "internalType": "address",
          "name": "from",
          "type": "address"
        },
        {
          "internalType": "address",
          "name": "to",
          "type": "address"
        },
        {
          "internalType": "uint256",
          "name": "tokenId",
          "type": "uint256"
        }
      ],
      "name": "safeTransferFrom",
      "outputs": [],
      "stateMutability": "nonpayable",
      "type": "function"
    },
    {
      "inputs": [
        {
          "internalType": "address",
          "name": "from",
          "type": "address"
        },
        {
          "internalType": "address",
          "name": "to",
          "type": "address"
        },
        {
          "internalType": "uint256",
          "name": "tokenId",
          "type": "uint256"
        },
        {
          "internalType": "bytes",
          "name": "_data",
          "type": "bytes"
        }
      ],
      "name": "safeTransferFrom",
      "outputs": [],
      "stateMutability": "nonpayable",
      "type": "function"
    },
    {
      "inputs": [
        {
          "internalType": "address",
          "name": "operator",
          "type": "address"
        },
        {
          "internalType": "bool",
          "name": "approved",
          "type": "bool"
        }
      ],
      "name": "setApprovalForAll",
      "outputs": [],
      "stateMutability": "nonpayable",
      "type": "function"
    },
    {
      "inputs": [
        {
          "internalType": "string",
          "name": "_baseTokenURI",
          "type": "string"
        }
      ],
      "name": "setBaseURI",
      "outputs": [],
      "stateMutability": "nonpayable",
      "type": "function"
    },
    {
      "inputs": [
        {
          "internalType": "bytes4",
          "name": "interfaceId",
          "type": "bytes4"
        }
      ],
      "name": "supportsInterface",
      "outputs": [
        {
          "internalType": "bool",
          "name": "",
          "type": "bool"
        }
      ],
      "stateMutability": "view",
      "type": "function"
    },
    {
      "inputs": [],
      "name": "symbol",
      "outputs": [
        {
          "internalType": "string",
          "name": "",
          "type": "string"
        }
      ],
      "stateMutability": "view",
      "type": "function"
    },
    {
      "inputs": [
        {
          "internalType": "uint256",
          "name": "index",
          "type": "uint256"
        }
      ],
      "name": "tokenByIndex",
      "outputs": [
        {
          "internalType": "uint256",
          "name": "",
          "type": "uint256"
        }
      ],
      "stateMutability": "view",
      "type": "function"
    },
    {
      "inputs": [
        {
          "internalType": "address",
          "name": "owner",
          "type": "address"
        },
        {
          "internalType": "uint256",
          "name": "index",
          "type": "uint256"
        }
      ],
      "name": "tokenOfOwnerByIndex",
      "outputs": [
        {
          "internalType": "uint256",
          "name": "",
          "type": "uint256"
        }
      ],
      "stateMutability": "view",
      "type": "function"
    },
    {
      "inputs": [
        {
          "internalType": "uint256",
          "name": "tokenId",
          "type": "uint256"
        }
      ],
      "name": "tokenURI",
      "outputs": [
        {
          "internalType": "string",
          "name": "",
          "type": "string"
        }
      ],
      "stateMutability": "view",
      "type": "function"
    },
    {
      "inputs": [
        {
          "internalType": "address",
          "name": "_owner",
          "type": "address"
        }
      ],
      "name": "tokensOfOwner",
      "outputs": [
        {
          "internalType": "uint256[]",
          "name": "",
          "type": "uint256[]"
        }
      ],
      "stateMutability": "view",
      "type": "function"
    },
    {
      "inputs": [],
      "name": "totalSupply",
      "outputs": [
        {
          "internalType": "uint256",
          "name": "",
          "type": "uint256"
        }
      ],
      "stateMutability": "view",
      "type": "function"
    },
    {
      "inputs": [
        {
          "internalType": "address",
          "name": "from",
          "type": "address"
        },
        {
          "internalType": "address",
          "name": "to",
          "type": "address"
        },
        {
          "internalType": "uint256",
          "name": "tokenId",
          "type": "uint256"
        }
      ],
      "name": "transferFrom",
      "outputs": [],
      "stateMutability": "nonpayable",
      "type": "function"
    },
    {
      "inputs": [
        {
          "internalType": "address",
          "name": "newOwner",
          "type": "address"
        }
      ],
      "name": "transferOwnership",
      "outputs": [],
      "stateMutability": "nonpayable",
      "type": "function"
    },
    {
      "inputs": [],
      "name": "withdraw",
      "outputs": [],
      "stateMutability": "payable",
      "type": "function"
    }
  ],
  "bytecode": "0x60806040523480156200001157600080fd5b5060405162004dbd38038062004dbd8339818101604052810190620000379190620003d4565b6040518060400160405280600f81526020017f4e465420436f6c6c65637469626c6500000000000000000000000000000000008152506040518060400160405280600481526020017f4e465443000000000000000000000000000000000000000000000000000000008152508160009080519060200190620000bb929190620002b2565b508060019080519060200190620000d4929190620002b2565b505050620000f7620000eb6200010f60201b60201c565b6200011760201b60201c565b6200010881620001dd60201b60201c565b506200060c565b600033905090565b6000600a60009054906101000a900473ffffffffffffffffffffffffffffffffffffffff16905081600a60006101000a81548173ffffffffffffffffffffffffffffffffffffffff021916908373ffffffffffffffffffffffffffffffffffffffff1602179055508173ffffffffffffffffffffffffffffffffffffffff168173ffffffffffffffffffffffffffffffffffffffff167f8be0079c531659141344cd1fd0a4f28419497f9722a3daafe3b4186f6b6457e060405160405180910390a35050565b620001ed6200010f60201b60201c565b73ffffffffffffffffffffffffffffffffffffffff16620002136200028860201b60201c565b73ffffffffffffffffffffffffffffffffffffffff16146200026c576040517f08c379a0000000000000000000000000000000000000000000000000000000008152600401620002639062000440565b60405180910390fd5b80600d908051906020019062000284929190620002b2565b5050565b6000600a60009054906101000a900473ffffffffffffffffffffffffffffffffffffffff16905090565b828054620002c09062000508565b90600052602060002090601f016020900481019282620002e4576000855562000330565b82601f10620002ff57805160ff191683800117855562000330565b8280016001018555821562000330579182015b828111156200032f57825182559160200191906001019062000312565b5b5090506200033f919062000343565b5090565b5b808211156200035e57600081600090555060010162000344565b5090565b60006200037962000373846200048b565b62000462565b9050828152602081018484840111156200039257600080fd5b6200039f848285620004d2565b509392505050565b600082601f830112620003b957600080fd5b8151620003cb84826020860162000362565b91505092915050565b600060208284031215620003e757600080fd5b600082015167ffffffffffffffff8111156200040257600080fd5b6200041084828501620003a7565b91505092915050565b600062000428602083620004c1565b91506200043582620005e3565b602082019050919050565b600060208201905081810360008301526200045b8162000419565b9050919050565b60006200046e62000481565b90506200047c82826200053e565b919050565b6000604051905090565b600067ffffffffffffffff821115620004a957620004a8620005a3565b5b620004b482620005d2565b9050602081019050919050565b600082825260208201905092915050565b60005b83811015620004f2578082015181840152602081019050620004d5565b8381111562000502576000848401525b50505050565b600060028204905060018216806200052157607f821691505b6020821081141562000538576200053762000574565b5b50919050565b6200054982620005d2565b810181811067ffffffffffffffff821117156200056b576200056a620005a3565b5b80604052505050565b7f4e487b7100000000000000000000000000000000000000000000000000000000600052602260045260246000fd5b7f4e487b7100000000000000000000000000000000000000000000000000000000600052604160045260246000fd5b6000601f19601f8301169050919050565b7f4f776e61626c653a2063616c6c6572206973206e6f7420746865206f776e6572600082015250565b6147a1806200061c6000396000f3fe6080604052600436106101d85760003560e01c806355f804b311610102578063a22cb46511610095578063d547cfb711610064578063d547cfb714610695578063dee91438146106c0578063e985e9c5146106e9578063f2fde38b14610726576101d8565b8063a22cb465146105c9578063b88d4fde146105f2578063c87b56dd1461061b578063cc76fd9214610658576101d8565b80638462151c116100d15780638462151c1461050b5780638d859f3e146105485780638da5cb5b1461057357806395d89b411461059e576101d8565b806355f804b3146104515780636352211e1461047a57806370a08231146104b7578063715018a6146104f4576101d8565b806318160ddd1161017a5780633b4b1381116101495780633b4b1381146103c55780633ccfd60b146103e157806342842e0e146103eb5780634f6ccce714610414576101d8565b806318160ddd1461030957806323b872dd146103345780632f745c591461035d57806332cb6b0c1461039a576101d8565b8063095ea7b3116101b6578063095ea7b31461028257806309d42b30146102ab578063131f4104146102d6578063144100c7146102f2576101d8565b806301ffc9a7146101dd57806306fdde031461021a578063081812fc14610245575b600080fd5b3480156101e957600080fd5b5061020460048036038101906101ff919061324f565b61074f565b60405161021191906138b0565b60405180910390f35b34801561022657600080fd5b5061022f6107c9565b60405161023c91906138cb565b60405180910390f35b34801561025157600080fd5b5061026c600480360381019061026791906132e2565b61085b565b6040516102799190613827565b60405180910390f35b34801561028e57600080fd5b506102a960048036038101906102a491906131ce565b6108e0565b005b3480156102b757600080fd5b506102c06109f8565b6040516102cd9190613c0d565b60405180910390f35b6102f060048036038101906102eb91906132e2565b6109fd565b005b3480156102fe57600080fd5b50610307610c28565b005b34801561031557600080fd5b5061031e610d33565b60405161032b9190613c0d565b60405180910390f35b34801561034057600080fd5b5061035b600480360381019061035691906130c8565b610d40565b005b34801561036957600080fd5b50610384600480360381019061037f91906131ce565b610da0565b6040516103919190613c0d565b60405180910390f35b3480156103a657600080fd5b506103af610e45565b6040516103bc9190613c0d565b60405180910390f35b6103df60048036038101906103da91906132e2565b610e4a565b005b6103e9610f85565b005b3480156103f757600080fd5b50610412600480360381019061040d91906130c8565b6110f9565b005b34801561042057600080fd5b5061043b600480360381019061043691906132e2565b611119565b6040516104489190613c0d565b60405180910390f35b34801561045d57600080fd5b50610478600480360381019061047391906132a1565b6111b0565b005b34801561048657600080fd5b506104a1600480360381019061049c91906132e2565b611246565b6040516104ae9190613827565b60405180910390f35b3480156104c357600080fd5b506104de60048036038101906104d99190613063565b6112f8565b6040516104eb9190613c0d565b60405180910390f35b34801561050057600080fd5b506105096113b0565b005b34801561051757600080fd5b50610532600480360381019061052d9190613063565b611438565b60405161053f919061388e565b60405180910390f35b34801561055457600080fd5b5061055d611532565b60405161056a9190613c0d565b60405180910390f35b34801561057f57600080fd5b5061058861153d565b6040516105959190613827565b60405180910390f35b3480156105aa57600080fd5b506105b3611567565b6040516105c091906138cb565b60405180910390f35b3480156105d557600080fd5b506105f060048036038101906105eb9190613192565b6115f9565b005b3480156105fe57600080fd5b5061061960048036038101906106149190613117565b61160f565b005b34801561062757600080fd5b50610642600480360381019061063d91906132e2565b611671565b60405161064f91906138cb565b60405180910390f35b34801561066457600080fd5b5061067f600480360381019061067a9190613063565b611718565b60405161068c91906138b0565b60405180910390f35b3480156106a157600080fd5b506106aa611738565b6040516106b791906138cb565b60405180910390f35b3480156106cc57600080fd5b506106e760048036038101906106e2919061320a565b6117c6565b005b3480156106f557600080fd5b50610710600480360381019061070b919061308c565b61190d565b60405161071d91906138b0565b60405180910390f35b34801561073257600080fd5b5061074d60048036038101906107489190613063565b6119a1565b005b60007f780e9d63000000000000000000000000000000000000000000000000000000007bffffffffffffffffffffffffffffffffffffffffffffffffffffffff1916827bffffffffffffffffffffffffffffffffffffffffffffffffffffffff191614806107c257506107c182611a99565b5b9050919050565b6060600080546107d890613f01565b80601f016020809104026020016040519081016040528092919081815260200182805461080490613f01565b80156108515780601f1061082657610100808354040283529160200191610851565b820191906000526020600020905b81548152906001019060200180831161083457829003601f168201915b5050505050905090565b600061086682611b7b565b6108a5576040517f08c379a000000000000000000000000000000000000000000000000000000000815260040161089c90613b2d565b60405180910390fd5b6004600083815260200190815260200160002060009054906101000a900473ffffffffffffffffffffffffffffffffffffffff169050919050565b60006108eb82611246565b90508073ffffffffffffffffffffffffffffffffffffffff168373ffffffffffffffffffffffffffffffffffffffff16141561095c576040517f08c379a000000000000000000000000000000000000000000000000000000000815260040161095390613b8d565b60405180910390fd5b8073ffffffffffffffffffffffffffffffffffffffff1661097b611be7565b73ffffffffffffffffffffffffffffffffffffffff1614806109aa57506109a9816109a4611be7565b61190d565b5b6109e9576040517f08c379a00000000000000000000000000000000000000000000000000000000081526004016109e090613a6d565b60405180910390fd5b6109f38383611bef565b505050565b600581565b6000610a09600b611ca8565b905060006611c37937e0800090506000600290506064610a328585611cb690919063ffffffff16565b1115610a73576040517f08c379a0000000000000000000000000000000000000000000000000000000008152600401610a6a90613a0d565b60405180910390fd5b600084118015610a835750808411155b610ac2576040517f08c379a0000000000000000000000000000000000000000000000000000000008152600401610ab990613a2d565b60405180910390fd5b610ad58483611ccc90919063ffffffff16565b341015610b17576040517f08c379a0000000000000000000000000000000000000000000000000000000008152600401610b0e906139ed565b60405180910390fd5b600c60003373ffffffffffffffffffffffffffffffffffffffff1673ffffffffffffffffffffffffffffffffffffffff16815260200190815260200160002060009054906101000a900460ff16610ba3576040517f08c379a0000000000000000000000000000000000000000000000000000000008152600401610b9a90613a8d565b60405180910390fd5b60005b84811015610bc957610bb6611ce2565b8080610bc190613f64565b915050610ba6565b506000600c60003373ffffffffffffffffffffffffffffffffffffffff1673ffffffffffffffffffffffffffffffffffffffff16815260200190815260200160002060006101000a81548160ff02191690831515021790555050505050565b610c30611be7565b73ffffffffffffffffffffffffffffffffffffffff16610c4e61153d565b73ffffffffffffffffffffffffffffffffffffffff1614610ca4576040517f08c379a0000000000000000000000000000000000000000000000000000000008152600401610c9b90613b4d565b60405180910390fd5b6000610cb0600b611ca8565b90506064610cc8600a83611cb690919063ffffffff16565b10610d08576040517f08c379a0000000000000000000000000000000000000000000000000000000008152600401610cff906138ed565b60405180910390fd5b60005b600a811015610d2f57610d1c611ce2565b8080610d2790613f64565b915050610d0b565b5050565b6000600880549050905090565b610d51610d4b611be7565b82611d07565b610d90576040517f08c379a0000000000000000000000000000000000000000000000000000000008152600401610d8790613bcd565b60405180910390fd5b610d9b838383611de5565b505050565b6000610dab836112f8565b8210610dec576040517f08c379a0000000000000000000000000000000000000000000000000000000008152600401610de39061390d565b60405180910390fd5b600660008473ffffffffffffffffffffffffffffffffffffffff1673ffffffffffffffffffffffffffffffffffffffff168152602001908152602001600020600083815260200190815260200160002054905092915050565b606481565b6000610e56600b611ca8565b90506064610e6d8383611cb690919063ffffffff16565b1115610eae576040517f08c379a0000000000000000000000000000000000000000000000000000000008152600401610ea590613a0d565b60405180910390fd5b600082118015610ebf575060058211155b610efe576040517f08c379a0000000000000000000000000000000000000000000000000000000008152600401610ef590613a2d565b60405180910390fd5b610f1882662386f26fc10000611ccc90919063ffffffff16565b341015610f5a576040517f08c379a0000000000000000000000000000000000000000000000000000000008152600401610f51906139ed565b60405180910390fd5b60005b82811015610f8057610f6d611ce2565b8080610f7890613f64565b915050610f5d565b505050565b610f8d611be7565b73ffffffffffffffffffffffffffffffffffffffff16610fab61153d565b73ffffffffffffffffffffffffffffffffffffffff1614611001576040517f08c379a0000000000000000000000000000000000000000000000000000000008152600401610ff890613b4d565b60405180910390fd5b600047905060008111611049576040517f08c379a000000000000000000000000000000000000000000000000000000000815260040161104090613b0d565b60405180910390fd5b60003373ffffffffffffffffffffffffffffffffffffffff168260405161106f90613812565b60006040518083038185875af1925050503d80600081146110ac576040519150601f19603f3d011682016040523d82523d6000602084013e6110b1565b606091505b50509050806110f5576040517f08c379a00000000000000000000000000000000000000000000000000000000081526004016110ec90613bad565b60405180910390fd5b5050565b6111148383836040518060200160405280600081525061160f565b505050565b6000611123610d33565b8210611164576040517f08c379a000000000000000000000000000000000000000000000000000000000815260040161115b90613bed565b60405180910390fd5b6008828154811061119e577f4e487b7100000000000000000000000000000000000000000000000000000000600052603260045260246000fd5b90600052602060002001549050919050565b6111b8611be7565b73ffffffffffffffffffffffffffffffffffffffff166111d661153d565b73ffffffffffffffffffffffffffffffffffffffff161461122c576040517f08c379a000000000000000000000000000000000000000000000000000000000815260040161122390613b4d565b60405180910390fd5b80600d9080519060200190611242929190612e3d565b5050565b6000806002600084815260200190815260200160002060009054906101000a900473ffffffffffffffffffffffffffffffffffffffff169050600073ffffffffffffffffffffffffffffffffffffffff168173ffffffffffffffffffffffffffffffffffffffff1614156112ef576040517f08c379a00000000000000000000000000000000000000000000000000000000081526004016112e690613acd565b60405180910390fd5b80915050919050565b60008073ffffffffffffffffffffffffffffffffffffffff168273ffffffffffffffffffffffffffffffffffffffff161415611369576040517f08c379a000000000000000000000000000000000000000000000000000000000815260040161136090613aad565b60405180910390fd5b600360008373ffffffffffffffffffffffffffffffffffffffff1673ffffffffffffffffffffffffffffffffffffffff168152602001908152602001600020549050919050565b6113b8611be7565b73ffffffffffffffffffffffffffffffffffffffff166113d661153d565b73ffffffffffffffffffffffffffffffffffffffff161461142c576040517f08c379a000000000000000000000000000000000000000000000000000000000815260040161142390613b4d565b60405180910390fd5b611436600061204c565b565b60606000611445836112f8565b905060008167ffffffffffffffff811115611489577f4e487b7100000000000000000000000000000000000000000000000000000000600052604160045260246000fd5b6040519080825280602002602001820160405280156114b75781602001602082028036833780820191505090505b50905060005b82811015611527576114cf8582610da0565b828281518110611508577f4e487b7100000000000000000000000000000000000000000000000000000000600052603260045260246000fd5b602002602001018181525050808061151f90613f64565b9150506114bd565b508092505050919050565b662386f26fc1000081565b6000600a60009054906101000a900473ffffffffffffffffffffffffffffffffffffffff16905090565b60606001805461157690613f01565b80601f01602080910402602001604051908101604052809291908181526020018280546115a290613f01565b80156115ef5780601f106115c4576101008083540402835291602001916115ef565b820191906000526020600020905b8154815290600101906020018083116115d257829003601f168201915b5050505050905090565b61160b611604611be7565b8383612112565b5050565b61162061161a611be7565b83611d07565b61165f576040517f08c379a000000000000000000000000000000000000000000000000000000000815260040161165690613bcd565b60405180910390fd5b61166b8484848461227f565b50505050565b606061167c82611b7b565b6116bb576040517f08c379a00000000000000000000000000000000000000000000000000000000081526004016116b290613b6d565b60405180910390fd5b60006116c56122db565b905060008151116116e55760405180602001604052806000815250611710565b806116ef8461236d565b6040516020016117009291906137ee565b6040516020818303038152906040525b915050919050565b600c6020528060005260406000206000915054906101000a900460ff1681565b600d805461174590613f01565b80601f016020809104026020016040519081016040528092919081815260200182805461177190613f01565b80156117be5780601f10611793576101008083540402835291602001916117be565b820191906000526020600020905b8154815290600101906020018083116117a157829003601f168201915b505050505081565b6117ce611be7565b73ffffffffffffffffffffffffffffffffffffffff166117ec61153d565b73ffffffffffffffffffffffffffffffffffffffff1614611842576040517f08c379a000000000000000000000000000000000000000000000000000000000815260040161183990613b4d565b60405180910390fd5b60005b82829050811015611908576001600c600085858581811061188f577f4e487b7100000000000000000000000000000000000000000000000000000000600052603260045260246000fd5b90506020020160208101906118a49190613063565b73ffffffffffffffffffffffffffffffffffffffff1673ffffffffffffffffffffffffffffffffffffffff16815260200190815260200160002060006101000a81548160ff021916908315150217905550808061190090613f64565b915050611845565b505050565b6000600560008473ffffffffffffffffffffffffffffffffffffffff1673ffffffffffffffffffffffffffffffffffffffff16815260200190815260200160002060008373ffffffffffffffffffffffffffffffffffffffff1673ffffffffffffffffffffffffffffffffffffffff16815260200190815260200160002060009054906101000a900460ff16905092915050565b6119a9611be7565b73ffffffffffffffffffffffffffffffffffffffff166119c761153d565b73ffffffffffffffffffffffffffffffffffffffff1614611a1d576040517f08c379a0000000000000000000000000000000000000000000000000000000008152600401611a1490613b4d565b60405180910390fd5b600073ffffffffffffffffffffffffffffffffffffffff168173ffffffffffffffffffffffffffffffffffffffff161415611a8d576040517f08c379a0000000000000000000000000000000000000000000000000000000008152600401611a849061394d565b60405180910390fd5b611a968161204c565b50565b60007f80ac58cd000000000000000000000000000000000000000000000000000000007bffffffffffffffffffffffffffffffffffffffffffffffffffffffff1916827bffffffffffffffffffffffffffffffffffffffffffffffffffffffff19161480611b6457507f5b5e139f000000000000000000000000000000000000000000000000000000007bffffffffffffffffffffffffffffffffffffffffffffffffffffffff1916827bffffffffffffffffffffffffffffffffffffffffffffffffffffffff1916145b80611b745750611b738261251a565b5b9050919050565b60008073ffffffffffffffffffffffffffffffffffffffff166002600084815260200190815260200160002060009054906101000a900473ffffffffffffffffffffffffffffffffffffffff1673ffffffffffffffffffffffffffffffffffffffff1614159050919050565b600033905090565b816004600083815260200190815260200160002060006101000a81548173ffffffffffffffffffffffffffffffffffffffff021916908373ffffffffffffffffffffffffffffffffffffffff160217905550808273ffffffffffffffffffffffffffffffffffffffff16611c6283611246565b73ffffffffffffffffffffffffffffffffffffffff167f8c5be1e5ebec7d5bd14f71427d1e84f3dd0314c0f7b2291e5b200ac8c7c3b92560405160405180910390a45050565b600081600001549050919050565b60008183611cc49190613d36565b905092915050565b60008183611cda9190613dbd565b905092915050565b6000611cee600b611ca8565b9050611cfa3382612584565b611d04600b6125a2565b50565b6000611d1282611b7b565b611d51576040517f08c379a0000000000000000000000000000000000000000000000000000000008152600401611d4890613a4d565b60405180910390fd5b6000611d5c83611246565b90508073ffffffffffffffffffffffffffffffffffffffff168473ffffffffffffffffffffffffffffffffffffffff161480611dcb57508373ffffffffffffffffffffffffffffffffffffffff16611db38461085b565b73ffffffffffffffffffffffffffffffffffffffff16145b80611ddc5750611ddb818561190d565b5b91505092915050565b8273ffffffffffffffffffffffffffffffffffffffff16611e0582611246565b73ffffffffffffffffffffffffffffffffffffffff1614611e5b576040517f08c379a0000000000000000000000000000000000000000000000000000000008152600401611e529061396d565b60405180910390fd5b600073ffffffffffffffffffffffffffffffffffffffff168273ffffffffffffffffffffffffffffffffffffffff161415611ecb576040517f08c379a0000000000000000000000000000000000000000000000000000000008152600401611ec2906139ad565b60405180910390fd5b611ed68383836125b8565b611ee1600082611bef565b6001600360008573ffffffffffffffffffffffffffffffffffffffff1673ffffffffffffffffffffffffffffffffffffffff1681526020019081526020016000206000828254611f319190613e17565b925050819055506001600360008473ffffffffffffffffffffffffffffffffffffffff1673ffffffffffffffffffffffffffffffffffffffff1681526020019081526020016000206000828254611f889190613d36565b92505081905550816002600083815260200190815260200160002060006101000a81548173ffffffffffffffffffffffffffffffffffffffff021916908373ffffffffffffffffffffffffffffffffffffffff160217905550808273ffffffffffffffffffffffffffffffffffffffff168473ffffffffffffffffffffffffffffffffffffffff167fddf252ad1be2c89b69c2b068fc378daa952ba7f163c4a11628f55a4df523b3ef60405160405180910390a46120478383836126cc565b505050565b6000600a60009054906101000a900473ffffffffffffffffffffffffffffffffffffffff16905081600a60006101000a81548173ffffffffffffffffffffffffffffffffffffffff021916908373ffffffffffffffffffffffffffffffffffffffff1602179055508173ffffffffffffffffffffffffffffffffffffffff168173ffffffffffffffffffffffffffffffffffffffff167f8be0079c531659141344cd1fd0a4f28419497f9722a3daafe3b4186f6b6457e060405160405180910390a35050565b8173ffffffffffffffffffffffffffffffffffffffff168373ffffffffffffffffffffffffffffffffffffffff161415612181576040517f08c379a0000000000000000000000000000000000000000000000000000000008152600401612178906139cd565b60405180910390fd5b80600560008573ffffffffffffffffffffffffffffffffffffffff1673ffffffffffffffffffffffffffffffffffffffff16815260200190815260200160002060008473ffffffffffffffffffffffffffffffffffffffff1673ffffffffffffffffffffffffffffffffffffffff16815260200190815260200160002060006101000a81548160ff0219169083151502179055508173ffffffffffffffffffffffffffffffffffffffff168373ffffffffffffffffffffffffffffffffffffffff167f17307eab39ab6107e8899845ad3d59bd9653f200f220920489ca2b5937696c318360405161227291906138b0565b60405180910390a3505050565b61228a848484611de5565b612296848484846126d1565b6122d5576040517f08c379a00000000000000000000000000000000000000000000000000000000081526004016122cc9061392d565b60405180910390fd5b50505050565b6060600d80546122ea90613f01565b80601f016020809104026020016040519081016040528092919081815260200182805461231690613f01565b80156123635780601f1061233857610100808354040283529160200191612363565b820191906000526020600020905b81548152906001019060200180831161234657829003601f168201915b5050505050905090565b606060008214156123b5576040518060400160405280600181526020017f30000000000000000000000000000000000000000000000000000000000000008152509050612515565b600082905060005b600082146123e75780806123d090613f64565b915050600a826123e09190613d8c565b91506123bd565b60008167ffffffffffffffff811115612429577f4e487b7100000000000000000000000000000000000000000000000000000000600052604160045260246000fd5b6040519080825280601f01601f19166020018201604052801561245b5781602001600182028036833780820191505090505b5090505b6000851461250e576001826124749190613e17565b9150600a856124839190613fad565b603061248f9190613d36565b60f81b8183815181106124cb577f4e487b7100000000000000000000000000000000000000000000000000000000600052603260045260246000fd5b60200101907effffffffffffffffffffffffffffffffffffffffffffffffffffffffffffff1916908160001a905350600a856125079190613d8c565b945061245f565b8093505050505b919050565b60007f01ffc9a7000000000000000000000000000000000000000000000000000000007bffffffffffffffffffffffffffffffffffffffffffffffffffffffff1916827bffffffffffffffffffffffffffffffffffffffffffffffffffffffff1916149050919050565b61259e828260405180602001604052806000815250612868565b5050565b6001816000016000828254019250508190555050565b6125c38383836128c3565b600073ffffffffffffffffffffffffffffffffffffffff168373ffffffffffffffffffffffffffffffffffffffff16141561260657612601816128c8565b612645565b8173ffffffffffffffffffffffffffffffffffffffff168373ffffffffffffffffffffffffffffffffffffffff1614612644576126438382612911565b5b5b600073ffffffffffffffffffffffffffffffffffffffff168273ffffffffffffffffffffffffffffffffffffffff1614156126885761268381612a7e565b6126c7565b8273ffffffffffffffffffffffffffffffffffffffff168273ffffffffffffffffffffffffffffffffffffffff16146126c6576126c58282612bc1565b5b5b505050565b505050565b60006126f28473ffffffffffffffffffffffffffffffffffffffff16612c40565b1561285b578373ffffffffffffffffffffffffffffffffffffffff1663150b7a0261271b611be7565b8786866040518563ffffffff1660e01b815260040161273d9493929190613842565b602060405180830381600087803b15801561275757600080fd5b505af192505050801561278857506040513d601f19601f820116820180604052508101906127859190613278565b60015b61280b573d80600081146127b8576040519150601f19603f3d011682016040523d82523d6000602084013e6127bd565b606091505b50600081511415612803576040517f08c379a00000000000000000000000000000000000000000000000000000000081526004016127fa9061392d565b60405180910390fd5b805181602001fd5b63150b7a0260e01b7bffffffffffffffffffffffffffffffffffffffffffffffffffffffff1916817bffffffffffffffffffffffffffffffffffffffffffffffffffffffff191614915050612860565b600190505b949350505050565b6128728383612c63565b61287f60008484846126d1565b6128be576040517f08c379a00000000000000000000000000000000000000000000000000000000081526004016128b59061392d565b60405180910390fd5b505050565b505050565b6008805490506009600083815260200190815260200160002081905550600881908060018154018082558091505060019003906000526020600020016000909190919091505550565b6000600161291e846112f8565b6129289190613e17565b9050600060076000848152602001908152602001600020549050818114612a0d576000600660008673ffffffffffffffffffffffffffffffffffffffff1673ffffffffffffffffffffffffffffffffffffffff168152602001908152602001600020600084815260200190815260200160002054905080600660008773ffffffffffffffffffffffffffffffffffffffff1673ffffffffffffffffffffffffffffffffffffffff168152602001908152602001600020600084815260200190815260200160002081905550816007600083815260200190815260200160002081905550505b6007600084815260200190815260200160002060009055600660008573ffffffffffffffffffffffffffffffffffffffff1673ffffffffffffffffffffffffffffffffffffffff16815260200190815260200160002060008381526020019081526020016000206000905550505050565b60006001600880549050612a929190613e17565b9050600060096000848152602001908152602001600020549050600060088381548110612ae8577f4e487b7100000000000000000000000000000000000000000000000000000000600052603260045260246000fd5b906000526020600020015490508060088381548110612b30577f4e487b7100000000000000000000000000000000000000000000000000000000600052603260045260246000fd5b906000526020600020018190555081600960008381526020019081526020016000208190555060096000858152602001908152602001600020600090556008805480612ba5577f4e487b7100000000000000000000000000000000000000000000000000000000600052603160045260246000fd5b6001900381819060005260206000200160009055905550505050565b6000612bcc836112f8565b905081600660008573ffffffffffffffffffffffffffffffffffffffff1673ffffffffffffffffffffffffffffffffffffffff168152602001908152602001600020600083815260200190815260200160002081905550806007600084815260200190815260200160002081905550505050565b6000808273ffffffffffffffffffffffffffffffffffffffff163b119050919050565b600073ffffffffffffffffffffffffffffffffffffffff168273ffffffffffffffffffffffffffffffffffffffff161415612cd3576040517f08c379a0000000000000000000000000000000000000000000000000000000008152600401612cca90613aed565b60405180910390fd5b612cdc81611b7b565b15612d1c576040517f08c379a0000000000000000000000000000000000000000000000000000000008152600401612d139061398d565b60405180910390fd5b612d28600083836125b8565b6001600360008473ffffffffffffffffffffffffffffffffffffffff1673ffffffffffffffffffffffffffffffffffffffff1681526020019081526020016000206000828254612d789190613d36565b92505081905550816002600083815260200190815260200160002060006101000a81548173ffffffffffffffffffffffffffffffffffffffff021916908373ffffffffffffffffffffffffffffffffffffffff160217905550808273ffffffffffffffffffffffffffffffffffffffff16600073ffffffffffffffffffffffffffffffffffffffff167fddf252ad1be2c89b69c2b068fc378daa952ba7f163c4a11628f55a4df523b3ef60405160405180910390a4612e39600083836126cc565b5050565b828054612e4990613f01565b90600052602060002090601f016020900481019282612e6b5760008555612eb2565b82601f10612e8457805160ff1916838001178555612eb2565b82800160010185558215612eb2579182015b82811115612eb1578251825591602001919060010190612e96565b5b509050612ebf9190612ec3565b5090565b5b80821115612edc576000816000905550600101612ec4565b5090565b6000612ef3612eee84613c4d565b613c28565b905082815260208101848484011115612f0b57600080fd5b612f16848285613ebf565b509392505050565b6000612f31612f2c84613c7e565b613c28565b905082815260208101848484011115612f4957600080fd5b612f54848285613ebf565b509392505050565b600081359050612f6b8161470f565b92915050565b60008083601f840112612f8357600080fd5b8235905067ffffffffffffffff811115612f9c57600080fd5b602083019150836020820283011115612fb457600080fd5b9250929050565b600081359050612fca81614726565b92915050565b600081359050612fdf8161473d565b92915050565b600081519050612ff48161473d565b92915050565b600082601f83011261300b57600080fd5b813561301b848260208601612ee0565b91505092915050565b600082601f83011261303557600080fd5b8135613045848260208601612f1e565b91505092915050565b60008135905061305d81614754565b92915050565b60006020828403121561307557600080fd5b600061308384828501612f5c565b91505092915050565b6000806040838503121561309f57600080fd5b60006130ad85828601612f5c565b92505060206130be85828601612f5c565b9150509250929050565b6000806000606084860312156130dd57600080fd5b60006130eb86828701612f5c565b93505060206130fc86828701612f5c565b925050604061310d8682870161304e565b9150509250925092565b6000806000806080858703121561312d57600080fd5b600061313b87828801612f5c565b945050602061314c87828801612f5c565b935050604061315d8782880161304e565b925050606085013567ffffffffffffffff81111561317a57600080fd5b61318687828801612ffa565b91505092959194509250565b600080604083850312156131a557600080fd5b60006131b385828601612f5c565b92505060206131c485828601612fbb565b9150509250929050565b600080604083850312156131e157600080fd5b60006131ef85828601612f5c565b92505060206132008582860161304e565b9150509250929050565b6000806020838503121561321d57600080fd5b600083013567ffffffffffffffff81111561323757600080fd5b61324385828601612f71565b92509250509250929050565b60006020828403121561326157600080fd5b600061326f84828501612fd0565b91505092915050565b60006020828403121561328a57600080fd5b600061329884828501612fe5565b91505092915050565b6000602082840312156132b357600080fd5b600082013567ffffffffffffffff8111156132cd57600080fd5b6132d984828501613024565b91505092915050565b6000602082840312156132f457600080fd5b60006133028482850161304e565b91505092915050565b600061331783836137d0565b60208301905092915050565b61332c81613e4b565b82525050565b600061333d82613cbf565b6133478185613ced565b935061335283613caf565b8060005b8381101561338357815161336a888261330b565b975061337583613ce0565b925050600181019050613356565b5085935050505092915050565b61339981613e5d565b82525050565b60006133aa82613cca565b6133b48185613cfe565b93506133c4818560208601613ece565b6133cd8161409a565b840191505092915050565b60006133e382613cd5565b6133ed8185613d1a565b93506133fd818560208601613ece565b6134068161409a565b840191505092915050565b600061341c82613cd5565b6134268185613d2b565b9350613436818560208601613ece565b80840191505092915050565b600061344f601f83613d1a565b915061345a826140ab565b602082019050919050565b6000613472602b83613d1a565b915061347d826140d4565b604082019050919050565b6000613495603283613d1a565b91506134a082614123565b604082019050919050565b60006134b8602683613d1a565b91506134c382614172565b604082019050919050565b60006134db602583613d1a565b91506134e6826141c1565b604082019050919050565b60006134fe601c83613d1a565b915061350982614210565b602082019050919050565b6000613521602483613d1a565b915061352c82614239565b604082019050919050565b6000613544601983613d1a565b915061354f82614288565b602082019050919050565b6000613567602283613d1a565b9150613572826142b1565b604082019050919050565b600061358a601583613d1a565b915061359582614300565b602082019050919050565b60006135ad602583613d1a565b91506135b882614329565b604082019050919050565b60006135d0602c83613d1a565b91506135db82614378565b604082019050919050565b60006135f3603883613d1a565b91506135fe826143c7565b604082019050919050565b6000613616601a83613d1a565b915061362182614416565b602082019050919050565b6000613639602a83613d1a565b91506136448261443f565b604082019050919050565b600061365c602983613d1a565b91506136678261448e565b604082019050919050565b600061367f602083613d1a565b915061368a826144dd565b602082019050919050565b60006136a2601983613d1a565b91506136ad82614506565b602082019050919050565b60006136c5602c83613d1a565b91506136d08261452f565b604082019050919050565b60006136e8602083613d1a565b91506136f38261457e565b602082019050919050565b600061370b602f83613d1a565b9150613716826145a7565b604082019050919050565b600061372e602183613d1a565b9150613739826145f6565b604082019050919050565b6000613751600083613d0f565b915061375c82614645565b600082019050919050565b6000613774601083613d1a565b915061377f82614648565b602082019050919050565b6000613797603183613d1a565b91506137a282614671565b604082019050919050565b60006137ba602c83613d1a565b91506137c5826146c0565b604082019050919050565b6137d981613eb5565b82525050565b6137e881613eb5565b82525050565b60006137fa8285613411565b91506138068284613411565b91508190509392505050565b600061381d82613744565b9150819050919050565b600060208201905061383c6000830184613323565b92915050565b60006080820190506138576000830187613323565b6138646020830186613323565b61387160408301856137df565b8181036060830152613883818461339f565b905095945050505050565b600060208201905081810360008301526138a88184613332565b905092915050565b60006020820190506138c56000830184613390565b92915050565b600060208201905081810360008301526138e581846133d8565b905092915050565b6000602082019050818103600083015261390681613442565b9050919050565b6000602082019050818103600083015261392681613465565b9050919050565b6000602082019050818103600083015261394681613488565b9050919050565b60006020820190508181036000830152613966816134ab565b9050919050565b60006020820190508181036000830152613986816134ce565b9050919050565b600060208201905081810360008301526139a6816134f1565b9050919050565b600060208201905081810360008301526139c681613514565b9050919050565b600060208201905081810360008301526139e681613537565b9050919050565b60006020820190508181036000830152613a068161355a565b9050919050565b60006020820190508181036000830152613a268161357d565b9050919050565b60006020820190508181036000830152613a46816135a0565b9050919050565b60006020820190508181036000830152613a66816135c3565b9050919050565b60006020820190508181036000830152613a86816135e6565b9050919050565b60006020820190508181036000830152613aa681613609565b9050919050565b60006020820190508181036000830152613ac68161362c565b9050919050565b60006020820190508181036000830152613ae68161364f565b9050919050565b60006020820190508181036000830152613b0681613672565b9050919050565b60006020820190508181036000830152613b2681613695565b9050919050565b60006020820190508181036000830152613b46816136b8565b9050919050565b60006020820190508181036000830152613b66816136db565b9050919050565b60006020820190508181036000830152613b86816136fe565b9050919050565b60006020820190508181036000830152613ba681613721565b9050919050565b60006020820190508181036000830152613bc681613767565b9050919050565b60006020820190508181036000830152613be68161378a565b9050919050565b60006020820190508181036000830152613c06816137ad565b9050919050565b6000602082019050613c2260008301846137df565b92915050565b6000613c32613c43565b9050613c3e8282613f33565b919050565b6000604051905090565b600067ffffffffffffffff821115613c6857613c6761406b565b5b613c718261409a565b9050602081019050919050565b600067ffffffffffffffff821115613c9957613c9861406b565b5b613ca28261409a565b9050602081019050919050565b6000819050602082019050919050565b600081519050919050565b600081519050919050565b600081519050919050565b6000602082019050919050565b600082825260208201905092915050565b600082825260208201905092915050565b600081905092915050565b600082825260208201905092915050565b600081905092915050565b6000613d4182613eb5565b9150613d4c83613eb5565b9250827fffffffffffffffffffffffffffffffffffffffffffffffffffffffffffffffff03821115613d8157613d80613fde565b5b828201905092915050565b6000613d9782613eb5565b9150613da283613eb5565b925082613db257613db161400d565b5b828204905092915050565b6000613dc882613eb5565b9150613dd383613eb5565b9250817fffffffffffffffffffffffffffffffffffffffffffffffffffffffffffffffff0483118215151615613e0c57613e0b613fde565b5b828202905092915050565b6000613e2282613eb5565b9150613e2d83613eb5565b925082821015613e4057613e3f613fde565b5b828203905092915050565b6000613e5682613e95565b9050919050565b60008115159050919050565b60007fffffffff0000000000000000000000000000000000000000000000000000000082169050919050565b600073ffffffffffffffffffffffffffffffffffffffff82169050919050565b6000819050919050565b82818337600083830152505050565b60005b83811015613eec578082015181840152602081019050613ed1565b83811115613efb576000848401525b50505050565b60006002820490506001821680613f1957607f821691505b60208210811415613f2d57613f2c61403c565b5b50919050565b613f3c8261409a565b810181811067ffffffffffffffff82111715613f5b57613f5a61406b565b5b80604052505050565b6000613f6f82613eb5565b91507fffffffffffffffffffffffffffffffffffffffffffffffffffffffffffffffff821415613fa257613fa1613fde565b5b600182019050919050565b6000613fb882613eb5565b9150613fc383613eb5565b925082613fd357613fd261400d565b5b828206905092915050565b7f4e487b7100000000000000000000000000000000000000000000000000000000600052601160045260246000fd5b7f4e487b7100000000000000000000000000000000000000000000000000000000600052601260045260246000fd5b7f4e487b7100000000000000000000000000000000000000000000000000000000600052602260045260246000fd5b7f4e487b7100000000000000000000000000000000000000000000000000000000600052604160045260246000fd5b6000601f19601f8301169050919050565b7f4e6f7420656e6f756768204e465473206c65667420746f207265736572766500600082015250565b7f455243373231456e756d657261626c653a206f776e657220696e646578206f7560008201527f74206f6620626f756e6473000000000000000000000000000000000000000000602082015250565b7f4552433732313a207472616e7366657220746f206e6f6e20455243373231526560008201527f63656976657220696d706c656d656e7465720000000000000000000000000000602082015250565b7f4f776e61626c653a206e6577206f776e657220697320746865207a65726f206160008201527f6464726573730000000000000000000000000000000000000000000000000000602082015250565b7f4552433732313a207472616e736665722066726f6d20696e636f72726563742060008201527f6f776e6572000000000000000000000000000000000000000000000000000000602082015250565b7f4552433732313a20746f6b656e20616c7265616479206d696e74656400000000600082015250565b7f4552433732313a207472616e7366657220746f20746865207a65726f2061646460008201527f7265737300000000000000000000000000000000000000000000000000000000602082015250565b7f4552433732313a20617070726f766520746f2063616c6c657200000000000000600082015250565b7f4e6f7420656e6f75676820657468657220746f207075726368617365204e465460008201527f732e000000000000000000000000000000000000000000000000000000000000602082015250565b7f4e6f7420656e6f756768204e465473206c656674210000000000000000000000600082015250565b7f43616e6e6f74206d696e7420737065636966696564206e756d626572206f662060008201527f4e4654732e000000000000000000000000000000000000000000000000000000602082015250565b7f4552433732313a206f70657261746f7220717565727920666f72206e6f6e657860008201527f697374656e7420746f6b656e0000000000000000000000000000000000000000602082015250565b7f4552433732313a20617070726f76652063616c6c6572206973206e6f74206f7760008201527f6e6572206e6f7220617070726f76656420666f7220616c6c0000000000000000602082015250565b7f41646472657373206973206e6f7420616c6c6f776c6973746564000000000000600082015250565b7f4552433732313a2062616c616e636520717565727920666f7220746865207a6560008201527f726f206164647265737300000000000000000000000000000000000000000000602082015250565b7f4552433732313a206f776e657220717565727920666f72206e6f6e657869737460008201527f656e7420746f6b656e0000000000000000000000000000000000000000000000602082015250565b7f4552433732313a206d696e7420746f20746865207a65726f2061646472657373600082015250565b7f4e6f206574686572206c65667420746f20776974686472617700000000000000600082015250565b7f4552433732313a20617070726f76656420717565727920666f72206e6f6e657860008201527f697374656e7420746f6b656e0000000000000000000000000000000000000000602082015250565b7f4f776e61626c653a2063616c6c6572206973206e6f7420746865206f776e6572600082015250565b7f4552433732314d657461646174613a2055524920717565727920666f72206e6f60008201527f6e6578697374656e7420746f6b656e0000000000000000000000000000000000602082015250565b7f4552433732313a20617070726f76616c20746f2063757272656e74206f776e6560008201527f7200000000000000000000000000000000000000000000000000000000000000602082015250565b50565b7f5472616e73666572206661696c65642e00000000000000000000000000000000600082015250565b7f4552433732313a207472616e736665722063616c6c6572206973206e6f74206f60008201527f776e6572206e6f7220617070726f766564000000000000000000000000000000602082015250565b7f455243373231456e756d657261626c653a20676c6f62616c20696e646578206f60008201527f7574206f6620626f756e64730000000000000000000000000000000000000000602082015250565b61471881613e4b565b811461472357600080fd5b50565b61472f81613e5d565b811461473a57600080fd5b50565b61474681613e69565b811461475157600080fd5b50565b61475d81613eb5565b811461476857600080fd5b5056fea26469706673582212202804362beceb1164583ff9f2f3dac66583804bae2ae48145763d3581b09b137464736f6c63430008040033",
  "linkReferences": {},
  "deployedLinkReferences": {}
}